{
  "_format": "hh-sol-artifact-1",
  "contractName": "Certificate",
  "sourceName": "contracts/Certificate.sol",
  "abi": [
    {
      "inputs": [
        {
          "internalType": "string",
          "name": "_userName",
          "type": "string"
        },
        {
          "internalType": "string",
          "name": "_id",
          "type": "string"
        },
        {
          "internalType": "string",
          "name": "_courseName",
          "type": "string"
        },
        {
          "internalType": "string",
          "name": "_issuingAuthority",
          "type": "string"
        },
        {
          "internalType": "uint256",
          "name": "_issueDate",
          "type": "uint256"
        },
        {
          "internalType": "address",
          "name": "_user",
          "type": "address"
        }
      ],
      "name": "addCertificate",
      "outputs": [],
      "stateMutability": "nonpayable",
      "type": "function"
    },
    {
      "inputs": [
        {
          "internalType": "address",
          "name": "",
          "type": "address"
        },
        {
          "internalType": "string",
          "name": "",
          "type": "string"
        }
      ],
      "name": "certificates",
      "outputs": [
        {
          "internalType": "string",
          "name": "userName",
          "type": "string"
        },
        {
          "internalType": "string",
          "name": "id",
          "type": "string"
        },
        {
          "internalType": "string",
          "name": "courseName",
          "type": "string"
        },
        {
          "internalType": "string",
          "name": "issuingAuthority",
          "type": "string"
        },
        {
          "internalType": "uint256",
          "name": "issueDate",
          "type": "uint256"
        },
        {
          "internalType": "address",
          "name": "user",
          "type": "address"
        },
        {
          "internalType": "bool",
          "name": "isAdded",
          "type": "bool"
        }
      ],
      "stateMutability": "view",
      "type": "function"
    },
    {
      "inputs": [
        {
          "internalType": "address",
          "name": "_user",
          "type": "address"
        },
        {
          "internalType": "string",
          "name": "_id",
          "type": "string"
        }
      ],
      "name": "getCertificate",
      "outputs": [
        {
          "internalType": "string",
          "name": "",
          "type": "string"
        },
        {
          "internalType": "string",
          "name": "",
          "type": "string"
        },
        {
          "internalType": "string",
          "name": "",
          "type": "string"
        },
        {
          "internalType": "uint256",
          "name": "",
          "type": "uint256"
        }
      ],
      "stateMutability": "view",
      "type": "function"
    }
  ],
  "bytecode": "0x608060405234801561001057600080fd5b50611299806100206000396000f3fe608060405234801561001057600080fd5b50600436106100415760003560e01c806326bf0f031461004657806363e7e85b14610079578063b12cc773146100af575b600080fd5b610060600480360381019061005b9190610b90565b6100cb565b6040516100709493929190610e92565b60405180910390f35b610093600480360381019061008e9190610b90565b6104b0565b6040516100a69796959493929190610e07565b60405180910390f35b6100c960048036038101906100c49190610be4565b610762565b005b606080606060008073ffffffffffffffffffffffffffffffffffffffff168673ffffffffffffffffffffffffffffffffffffffff161415610141576040517f08c379a000000000000000000000000000000000000000000000000000000000815260040161013890610f2c565b60405180910390fd5b600085511415610186576040517f08c379a000000000000000000000000000000000000000000000000000000000815260040161017d90610f4c565b60405180910390fd5b6000808773ffffffffffffffffffffffffffffffffffffffff1673ffffffffffffffffffffffffffffffffffffffff168152602001908152602001600020856040516101d29190610df0565b90815260200160405180910390206000016000808873ffffffffffffffffffffffffffffffffffffffff1673ffffffffffffffffffffffffffffffffffffffff1681526020019081526020016000208660405161022f9190610df0565b90815260200160405180910390206003016000808973ffffffffffffffffffffffffffffffffffffffff1673ffffffffffffffffffffffffffffffffffffffff1681526020019081526020016000208760405161028c9190610df0565b90815260200160405180910390206002016000808a73ffffffffffffffffffffffffffffffffffffffff1673ffffffffffffffffffffffffffffffffffffffff168152602001908152602001600020886040516102e99190610df0565b90815260200160405180910390206004015483805461030790611073565b80601f016020809104026020016040519081016040528092919081815260200182805461033390611073565b80156103805780601f1061035557610100808354040283529160200191610380565b820191906000526020600020905b81548152906001019060200180831161036357829003601f168201915b5050505050935082805461039390611073565b80601f01602080910402602001604051908101604052809291908181526020018280546103bf90611073565b801561040c5780601f106103e15761010080835404028352916020019161040c565b820191906000526020600020905b8154815290600101906020018083116103ef57829003601f168201915b5050505050925081805461041f90611073565b80601f016020809104026020016040519081016040528092919081815260200182805461044b90611073565b80156104985780601f1061046d57610100808354040283529160200191610498565b820191906000526020600020905b81548152906001019060200180831161047b57829003601f168201915b50505050509150935093509350935092959194509250565b600060205281600052604060002081805160208101820180518482526020830160208501208183528095505050505050600091509150508060000180546104f690611073565b80601f016020809104026020016040519081016040528092919081815260200182805461052290611073565b801561056f5780601f106105445761010080835404028352916020019161056f565b820191906000526020600020905b81548152906001019060200180831161055257829003601f168201915b50505050509080600101805461058490611073565b80601f01602080910402602001604051908101604052809291908181526020018280546105b090611073565b80156105fd5780601f106105d2576101008083540402835291602001916105fd565b820191906000526020600020905b8154815290600101906020018083116105e057829003601f168201915b50505050509080600201805461061290611073565b80601f016020809104026020016040519081016040528092919081815260200182805461063e90611073565b801561068b5780601f106106605761010080835404028352916020019161068b565b820191906000526020600020905b81548152906001019060200180831161066e57829003601f168201915b5050505050908060030180546106a090611073565b80601f01602080910402602001604051908101604052809291908181526020018280546106cc90611073565b80156107195780601f106106ee57610100808354040283529160200191610719565b820191906000526020600020905b8154815290600101906020018083116106fc57829003601f168201915b5050505050908060040154908060050160009054906101000a900473ffffffffffffffffffffffffffffffffffffffff16908060050160149054906101000a900460ff16905087565b600015156000808373ffffffffffffffffffffffffffffffffffffffff1673ffffffffffffffffffffffffffffffffffffffff168152602001908152602001600020866040516107b29190610df0565b908152602001604051809103902060050160149054906101000a900460ff16151514610813576040517f08c379a000000000000000000000000000000000000000000000000000000000815260040161080a90610f0c565b60405180910390fd5b60008060008373ffffffffffffffffffffffffffffffffffffffff1673ffffffffffffffffffffffffffffffffffffffff168152602001908152602001600020866040516108619190610df0565b9081526020016040518091039020600101805461087d90611073565b9050146108bf576040517f08c379a00000000000000000000000000000000000000000000000000000000081526004016108b690610eec565b60405180910390fd5b60006040518060e001604052808881526020018781526020018681526020018581526020018481526020018373ffffffffffffffffffffffffffffffffffffffff168152602001600115158152509050806000808473ffffffffffffffffffffffffffffffffffffffff1673ffffffffffffffffffffffffffffffffffffffff1681526020019081526020016000208760405161095c9190610df0565b90815260200160405180910390206000820151816000019080519060200190610986929190610a5b565b5060208201518160010190805190602001906109a3929190610a5b565b5060408201518160020190805190602001906109c0929190610a5b565b5060608201518160030190805190602001906109dd929190610a5b565b506080820151816004015560a08201518160050160006101000a81548173ffffffffffffffffffffffffffffffffffffffff021916908373ffffffffffffffffffffffffffffffffffffffff16021790555060c08201518160050160146101000a81548160ff02191690831515021790555090505050505050505050565b828054610a6790611073565b90600052602060002090601f016020900481019282610a895760008555610ad0565b82601f10610aa257805160ff1916838001178555610ad0565b82800160010185558215610ad0579182015b82811115610acf578251825591602001919060010190610ab4565b5b509050610add9190610ae1565b5090565b5b80821115610afa576000816000905550600101610ae2565b5090565b6000610b11610b0c84610f91565b610f6c565b905082815260208101848484011115610b2957600080fd5b610b34848285611031565b509392505050565b600081359050610b4b81611235565b92915050565b600082601f830112610b6257600080fd5b8135610b72848260208601610afe565b91505092915050565b600081359050610b8a8161124c565b92915050565b60008060408385031215610ba357600080fd5b6000610bb185828601610b3c565b925050602083013567ffffffffffffffff811115610bce57600080fd5b610bda85828601610b51565b9150509250929050565b60008060008060008060c08789031215610bfd57600080fd5b600087013567ffffffffffffffff811115610c1757600080fd5b610c2389828a01610b51565b965050602087013567ffffffffffffffff811115610c4057600080fd5b610c4c89828a01610b51565b955050604087013567ffffffffffffffff811115610c6957600080fd5b610c7589828a01610b51565b945050606087013567ffffffffffffffff811115610c9257600080fd5b610c9e89828a01610b51565b9350506080610caf89828a01610b7b565b92505060a0610cc089828a01610b3c565b9150509295509295509295565b610cd681610fe9565b82525050565b610ce581610ffb565b82525050565b6000610cf682610fc2565b610d008185610fcd565b9350610d10818560208601611040565b610d1981611134565b840191505092915050565b6000610d2f82610fc2565b610d398185610fde565b9350610d49818560208601611040565b80840191505092915050565b6000610d62601d83610fcd565b9150610d6d82611145565b602082019050919050565b6000610d85602683610fcd565b9150610d908261116e565b604082019050919050565b6000610da8601e83610fcd565b9150610db3826111bd565b602082019050919050565b6000610dcb602183610fcd565b9150610dd6826111e6565b604082019050919050565b610dea81611027565b82525050565b6000610dfc8284610d24565b915081905092915050565b600060e0820190508181036000830152610e21818a610ceb565b90508181036020830152610e358189610ceb565b90508181036040830152610e498188610ceb565b90508181036060830152610e5d8187610ceb565b9050610e6c6080830186610de1565b610e7960a0830185610ccd565b610e8660c0830184610cdc565b98975050505050505050565b60006080820190508181036000830152610eac8187610ceb565b90508181036020830152610ec08186610ceb565b90508181036040830152610ed48185610ceb565b9050610ee36060830184610de1565b95945050505050565b60006020820190508181036000830152610f0581610d55565b9050919050565b60006020820190508181036000830152610f2581610d78565b9050919050565b60006020820190508181036000830152610f4581610d9b565b9050919050565b60006020820190508181036000830152610f6581610dbe565b9050919050565b6000610f76610f87565b9050610f8282826110a5565b919050565b6000604051905090565b600067ffffffffffffffff821115610fac57610fab611105565b5b610fb582611134565b9050602081019050919050565b600081519050919050565b600082825260208201905092915050565b600081905092915050565b6000610ff482611007565b9050919050565b60008115159050919050565b600073ffffffffffffffffffffffffffffffffffffffff82169050919050565b6000819050919050565b82818337600083830152505050565b60005b8381101561105e578082015181840152602081019050611043565b8381111561106d576000848401525b50505050565b6000600282049050600182168061108b57607f821691505b6020821081141561109f5761109e6110d6565b5b50919050565b6110ae82611134565b810181811067ffffffffffffffff821117156110cd576110cc611105565b5b80604052505050565b7f4e487b7100000000000000000000000000000000000000000000000000000000600052602260045260246000fd5b7f4e487b7100000000000000000000000000000000000000000000000000000000600052604160045260246000fd5b6000601f19601f8301169050919050565b7f4365727469666963617465206964206d75737420626520656d7074792e000000600082015250565b7f4365727469666963617465206d757374206e6f7420626520616c72656164792060008201527f61646465642e0000000000000000000000000000000000000000000000000000602082015250565b7f557365722061646472657373206d757374206e6f7420626520656d7074790000600082015250565b7f4365727469666963617465206964206d757374206e6f7420626520656d70747960008201527f2e00000000000000000000000000000000000000000000000000000000000000602082015250565b61123e81610fe9565b811461124957600080fd5b50565b61125581611027565b811461126057600080fd5b5056fea26469706673582212207faa2b20eb4eb87b2d86b589aae14f4375635a92b77d13d60f8dbfe9d1f0eb7064736f6c63430008040033",
  "linkReferences": {},
  "deployedLinkReferences": {}
}